{
  "contractName": "ArtworkOwnership",
  "abi": [
    {
      "inputs": [
        {
          "internalType": "uint256",
          "name": "",
          "type": "uint256"
        }
      ],
      "name": "artworks",
      "outputs": [
        {
          "internalType": "string",
          "name": "name",
          "type": "string"
        },
        {
          "internalType": "address payable",
          "name": "owner",
          "type": "address"
        },
        {
          "internalType": "uint256",
          "name": "productId",
          "type": "uint256"
        }
      ],
      "stateMutability": "view",
      "type": "function",
      "constant": true
    },
    {
      "inputs": [
        {
          "internalType": "string",
          "name": "_name",
          "type": "string"
        },
        {
          "internalType": "uint256",
          "name": "_productId",
          "type": "uint256"
        }
      ],
      "name": "createArtwork",
      "outputs": [],
      "stateMutability": "nonpayable",
      "type": "function"
    },
    {
      "inputs": [
        {
          "internalType": "uint256",
          "name": "_artworkId",
          "type": "uint256"
        },
        {
          "internalType": "address payable",
          "name": "_newOwner",
          "type": "address"
        },
        {
          "internalType": "uint256",
          "name": "_productId",
          "type": "uint256"
        }
      ],
      "name": "transferOwnership",
      "outputs": [],
      "stateMutability": "nonpayable",
      "type": "function"
    }
  ],
  "bytecode": "0x608060405234801561001057600080fd5b50610620806100206000396000f3fe608060405234801561001057600080fd5b50600436106100415760003560e01c80634b6026731461004657806370435c9914610071578063a64725dd14610086575b600080fd5b6100596100543660046102fd565b610099565b60405161006893929190610316565b60405180910390f35b61008461007f36600461037c565b610165565b005b6100846100943660046103d6565b61026a565b600081815481106100a957600080fd5b90600052602060002090600302016000915090508060000180546100cc9061048b565b80601f01602080910402602001604051908101604052809291908181526020018280546100f89061048b565b80156101455780601f1061011a57610100808354040283529160200191610145565b820191906000526020600020905b81548152906001019060200180831161012857829003601f168201915b50505050600183015460029093015491926001600160a01b031691905083565b60008381548110610178576101786104c5565b60009182526020909120600390910201600101546001600160a01b031633146101f35760405162461bcd60e51b8152602060048201526024808201527f596f7520617265206e6f7420746865206f776e6572206f662074686520617274604482015263776f726b60e01b606482015260840160405180910390fd5b8160008481548110610207576102076104c5565b906000526020600020906003020160010160006101000a8154816001600160a01b0302191690836001600160a01b031602179055508060008481548110610250576102506104c5565b906000526020600020906003020160020181905550505050565b6040805160608101825283815233602082015290810182905260008054600181018255908052815160039091027f290decd9548b62a8d60345a988386fc84ba6bc95484008f6362f93160ef3e563019081906102c6908261052a565b5060208201516001820180546001600160a01b0319166001600160a01b039092169190911790556040909101516002909101555050565b60006020828403121561030f57600080fd5b5035919050565b606081526000845180606084015260005b818110156103445760208188018101516080868401015201610327565b50600060808285018101919091526001600160a01b03959095166020840152604083019390935250601f909101601f19160101919050565b60008060006060848603121561039157600080fd5b8335925060208401356001600160a01b03811681146103af57600080fd5b929592945050506040919091013590565b634e487b7160e01b600052604160045260246000fd5b600080604083850312156103e957600080fd5b823567ffffffffffffffff8082111561040157600080fd5b818501915085601f83011261041557600080fd5b813581811115610427576104276103c0565b604051601f8201601f19908116603f0116810190838211818310171561044f5761044f6103c0565b8160405282815288602084870101111561046857600080fd5b826020860160208301376000602093820184015298969091013596505050505050565b600181811c9082168061049f57607f821691505b6020821081036104bf57634e487b7160e01b600052602260045260246000fd5b50919050565b634e487b7160e01b600052603260045260246000fd5b601f82111561052557600081815260208120601f850160051c810160208610156105025750805b601f850160051c820191505b818110156105215782815560010161050e565b5050505b505050565b815167ffffffffffffffff811115610544576105446103c0565b61055881610552845461048b565b846104db565b602080601f83116001811461058d57600084156105755750858301515b600019600386901b1c1916600185901b178555610521565b600085815260208120601f198616915b828110156105bc5788860151825594840194600190910190840161059d565b50858210156105da5787850151600019600388901b60f8161c191681555b5050505050600190811b0190555056fea264697066735822122001b34d1d82082eb150ecb3768bae48ff0eb086669b269c8414ea499e48c5740b64736f6c63430008130033",
  "immutableReferences": {},
  "source": "// SPDX-License-Identifier: MIT\r\npragma solidity ^0.8.19;\r\n\r\ncontract ArtworkOwnership {\r\n    struct Artwork {\r\n        string name;\r\n        address payable owner;\r\n        uint productId; // Eserin productId'si\r\n    }\r\n\r\n    Artwork[] public artworks;\r\n\r\n    function createArtwork(string memory _name,uint _productId) public {\r\n        artworks.push(Artwork(_name, payable(msg.sender), _productId));\r\n    }\r\n\r\n    function transferOwnership(\r\n        uint _artworkId,\r\n        address payable _newOwner,\r\n        uint _productId\r\n    ) public {\r\n        require(\r\n            msg.sender == artworks[_artworkId].owner,\r\n            \"You are not the owner of the artwork\"\r\n        );\r\n        artworks[_artworkId].owner = _newOwner;\r\n        artworks[_artworkId].productId = _productId;\r\n}\r\n}\r\n",
  "sourcePath": "C:\\Users\\aybar\\Desktop\\NITROCOIN\\contracts\\ArtworkOwnership.sol",
  "compiler": {
    "name": "solc",
    "version": "0.8.19+commit.7dd6d404.Emscripten.clang"
  },
  "schemaVersion": "3.4.14",
  "updatedAt": "2023-06-24T21:20:08.663Z",
  "networkType": "ethereum",
  "devdoc": {
    "kind": "dev",
    "methods": {},
    "version": 1
  },
  "userdoc": {
    "kind": "user",
    "methods": {},
    "version": 1
  }
}